:020000002928AD
:10000800FF00030E8301A3000A08A4008A018B1CC9
:1000180015280130A2068B10221C142886161528D4
:10002800861224088A00230E8300FF0E7F0E090023
:100038008B170B130B1683160313011306140612E2
:0A00480086128312860122100800C0
:100052001C2006160B30FB002630FC005D30FD0034
:10006200FD0B3128FC0B3128FB0B3128000000006E
:1000720006120B30FB002630FC005D30FD00FD0B4C
:100082004028FC0B4028FB0B4028000000002A28D7
:020092004928FB
:02400E006A2125
:00000001FF
