:020000000928CD
:0C00060083160313860183128601080094
:10001200032086150630FB001330FC00AD30FD00D6
:10002200FD0B1128FC0B1128FB0B1128000000000E
:1000320086110630FB001330FC00AD30FD00FD0BD5
:100042002028FC0B2028FB0B2028000000000616AD
:1000520086160630FB001330FC00AD30FD00FD0BB0
:100062003028FC0B3028FB0B302800000000061261
:1000720086120630FB001330FC00AD30FD00FD0B94
:100082004028FC0B4028FB0B40280000000006170C
:1000920086170630FB001330FC00AD30FD00FD0B6F
:1000A2005028FC0B5028FB0B5028000000000613C0
:1000B20086130630FB001330FC00AD30FD00FD0B53
:1000C2006028FC0B6028FB0B6028000000000A2857
:0200D20069289B
:02400E004A2F37
:00000001FF
