:02000000622E6E
:10000600103083120313FD00FD0B072800000800C3
:10001600083083120313FC002330FD00FD0B11286A
:06002600FC0B112808008C
:04002C0000000800C8
:100030007B15FB1F22280130F300F201F101F001D2
:08004000FA0DF20CFF3008007C
:1000480083160313AA1B2B28831286132D288312C9
:10005800861783162A1B3328831206133528831222
:1000680006178316AA1A3B28831286123D28831284
:10007800861683162A1A43288312061245288312E5
:1000880006164B18492806154A2806118615162003
:1000980086118316AA1953288312861355288312AA
:1000A800861783162A195B28831206135D28831284
:1000B80006178316AA1863288312861265288312E6
:1000C800861683162A186B28831206126D28831247
:1000D80006164B1871280615722806118615162063
:0E00E80086114B1C79280B207A280320080073
:0E00F600F201F101F001F801F3010030080001
:08010400FA1FF213003008009D
:10010C00FB14FB1F9028FF30F300F200F100F0000D
:08011C00FA0DF20CFF3008009F
:10012400FF3083120313CC00FF30CD00FF30CE002C
:10013400FF309F01C0309F043E09F0007008831611
:0C0144009F051F179F1783121F1408004F
:10015000831203134B1083162808AA0024204B1483
:02016000080095
:1001620083160313861106110612861206138613CE
:1001720083128611061186130613861206120B20AD
:100182000B200B20861606168615162086110B20CC
:100192008615162086110B208615162086110B2037
:1001A20006128615162086110B208615162086113A
:1001B200861286178615162086110B2086130616C0
:1001C20086151620861106128615162086110B201A
:1001D20086151620861106168615162086110B2006
:1001E200061286151620861186170617861606161B
:0C01F2008615162086110B204B14080007
:0E01FE00831203134A088A0049088200080091
:0E020C00073083120313FD00FD0B0A290800C2
:10021A0083120313FB017308031D7708031964296A
:10022A0072087606FA007708F3077E30031C212944
:10023A00F302031867292429F302031C6A297208A6
:10024A00F8007108FC007008FD00F817F617031093
:10025A00F201F101F0011830A0007D1C3E2974085A
:10026A00F00775080318750FF10776080318760F5B
:10027A00F207F20CF10CF00CF80CFC0CFD0C03105C
:10028A00A00B3229F21B4E29F80DF00DF10DF20DDB
:10029A00F3037B1B701C6029F81F6029F00A0319FD
:1002AA00F10A0319F20A031D6029F20CF10CF00C91
:1002BA00F30A03196729FA1FF21300306C29013077
:1002CA007B206C29023086206C290430182000001B
:0202DA0008001A
:1002DC0083120313FD01F80170080319003474062E
:1002EC00FA00FA1BFD09FB01F41F7E29F409F40A3C
:1002FC00F01F8229F009F00A70087404FA00FA1B46
:10030C00A6297408F802F00D700DF80D7408F807A2
:10031C00F00D0630FC00700DF80D74087018F80222
:10032C00701CF807F00DFC0B9129701CF8077B185A
:10033C00B429FD1F0034F009F00AF809F80A00345A
:10034C00F41FB129F01BAE297008F800F0019F29A9
:10035C00F001F00A0034F009FB0A8729F80A740846
:10036C007802031D9F29F801F00AF01F9F29FF3422
:02037C00080077
:10037E00A0017208031DD4297108F2007008F10063
:10038E00F001A0157208031DD4297108F200F101C5
:10039E00A011201672080319E2292008F302031D8A
:1003AE00031CE6290310F21BEA29F00DF10DF20DE4
:1003BE00F30BDA29E6290130FC007B20ED2902300F
:0E03CE00FC001820ED290430FC0082200800FD
:1003DC00831603132808F2007208F100F20A2908A8
:1003EC00F000A90A700884000008F000710884006D
:1003FC00700880007108840000080319062AF2298D
:06040C002808F0000800C2
:06041200FB15FF3008009D
:1004180083120313FA017308031D7A147708031D66
:10042800FA147A080319582A033A0319232A7A185E
:10043800202AF61F562A542AF21F542A562A7208CE
:100448008039FA00F21376088039F6137A06031910
:10045800312A7A080319542A562A7708730203198D
:10046800382A031C4C2A502A7608720203193F2A9C
:10047800031C4C2A502A750871020319462A031CCA
:100488004C2A502A740870020319582A0318502A53
:10049800FA080319562A542AFA080319542A562A1C
:1004A80003140800031008000314031508000800CB
:1004B800831203137408003A031D772A7508003A5B
:1004C800031D772A7608003A031D772A7708003A31
:1004D800031D772AFF30F000FF30F1007F30F20073
:1004E800FF30F300122B8312031377080319062B2E
:1004F80073080319092B720876068039FA00F21777
:10050800F617A0017208F8007108FC007008FD00D9
:100518007408FD027508031C750FFC027608031C9D
:10052800760FF802F801FC01FD01031CA22A031052
:10053800F20CF10CF00CF80C0130A0007708F30273
:10054800031CAC2A7E302007F30703180C2BB12AB2
:100558007E302007F307031C0F2B1830FA07FD0D18
:10056800FC0DF80DF00DF10DF20DA00D7408F00260
:100578007508031C750FF1027608031C760FF2024A
:10058800760DA004201CCA2A7D14D52A7408F00709
:1005980075080318750FF10776080318760AF2072D
:1005A8007D10FA031F307A05031DB32A7B1B7D1CBF
:1005B800FC2A0310F00DF10DF20DA00D7408F002E5
:1005C8007508031C750FF1027608031C760FF202FA
:1005D800760D20040139FD070318FC0A0319F80AEF
:1005E800031DFC2AF80CFC0CFD0CF30A03190C2B58
:1005F800FA1FF8137808F2007C08F1007D08F00073
:100608000030112B01300922112B02307B20112BD5
:0E06180004308620112B083018200000080046
:10062600252B803083120313E700382BC030E700F8
:10063600382B9430E700382BD430E700382B803045
:10064600E700382B831203136708013A0319142BAA
:100656006708023A0319192B6708033A03191C2B7A
:100666006708043A03191F2B222B6803F00067085A
:10067600F0077008E70070088316AA0024204B10C4
:10068600EA016A086907840000080319532B6A08FF
:100696006907840000088316A800A820EA0A442BEC
:0406A6004B140800E9
:1006AA0083120313EF018316A401A501A601A70172
:1006BA00831267088316A000831268088316A100B4
:1006CA00831269088316A20083126A088316A3009C
:1006DA002308FF3A031D7B2B2208FF3A031D7B2BBD
:1006EA002108FF3A031D7B2B2008FF3A031D872BA5
:1006FA0083126B088316A8004530A900EE21033047
:10070A00F000082E01308312ED008316A21F9C2BE5
:10071A0080302206F0007008A2008312ED0A8316C8
:10072A00A40A83126B0884002D308000EB0A003083
:10073A00F00083162306031DAC2B70082206031D46
:10074A00AC2B70082106031DAC2B2008003A031DB0
:10075A00B72B83126B088316A8004330A900EE2139
:10076A00F001082E2308FF3A031DC52B2208003A80
:10077A00031DC52B2108003A031DC52B2008003A8A
:10078A00031DD22B83126B088316A8003F30A900E1
:10079A00EE2183126D08F000082E0030F4000030BC
:1007AA00F5000030F6007F30F70083162008F000CD
:1007BA002108F1002208F2002308F3000C2201307C
:1007CA0003180030F00070080319082C831620085B
:1007DA00F0002108F1002208F2002308F30000309B
:1007EA00F4000030F5002030F6008230F7000D21C9
:1007FA0070088316A0007108A1007208A20073088D
:10080A00A300A703D22B83160030F4000030F500B2
:10081A002030F6008230F7002008F0002108F100AD
:10082A002208F2002308F3000C220130031C0030D6
:10083A00F000700803193E2C83162008F0002108E6
:10084A00F1002208F2002308F300CD30F400CC3086
:10085A00F5004C30F6007B30F7000D217008831646
:10086A00A0007108A1007208A2007308A300A70AD9
:10087A00082C8316FF302005F800FF302105F90007
:10088A007F302205FA0000302305FB007808F400C7
:10089A007908F5007A08F6007B08F700F40DF50DE3
:1008AA00F60DF70D741000302005F0000030210518
:1008BA00F10000302205F200FF302305F300700832
:1008CA00A0007108A1007208A2007308A3007408AE
:1008DA002004F00075082104F10076082204F200D1
:1008EA0077082304F3007008A0007108A1007208B9
:1008FA00A2007308A3007F302302F000700883125D
:10090A00EE0001308316A3007008F4002008F000FE
:10091A002108F1002208F2002308F30074080319E1
:10092A009D2CF00DF10DF20DF30D7010FF3E942C7D
:10093A007008A0007108A1007208A2007308A30041
:10094A002308303EF00083126B0884007008800090
:10095A00EB0A8316A40A80302706F0008030013A99
:10096A007002031CC12C8030063AF0008030270642
:10097A007002031CC12CCB2C83126B0884002E300E
:10098A008000EB0A0130EF008316A40A06308312B6
:10099A00EE006E08003A0319362D8316A3012008CB
:1009AA00F0002108F1002208F2002308F300F00DFC
:1009BA00F10DF20DF30D7010F00DF10DF20DF30DB6
:1009CA0070102008F00721080318210FF1072208E8
:1009DA000318220FF20723080318230FF3077008DE
:1009EA00A0007108A1007208A2007308A3002008E1
:1009FA00F0002108F1002208F2002308F300F00DAC
:100A0A00F10DF20DF30D70107008A0007108A1002D
:100A1A007208A2007308A3002308303EF000831274
:100A2A006B08840070088000EB0A8316A40A8312FC
:100A3A006F08003A031D332D8316A7032708003ACF
:100A4A00031D332D0130A60083126B0884002E305B
:100A5A008000EB0A0130EF008316A40A8312EE032A
:100A6A00CE2C83162608013A031D3C2DA403FF3021
:100A7A0083126B07840000082E3A031D472DEB03EF
:100A8A008316A40383168030003AF00080302706CC
:100A9A0070020318522D0130A50080302706F0009D
:100AAA008030003A700203185C2D0230A500270836
:100ABA008312EE008030093AF00080308316270650
:100ACA007002031C6A2DA50A6C2D0230A5072508A1
:100ADA002407F100F2010318F20A80307206F000CE
:100AEA0080307002031D7C2D83126C08710203187A
:100AFA00872D83126B08840030308000EB0A83163E
:100B0A00A40A6C2D83162708003A0319CD2D8312E7
:100B1A006B08840065308000EB0A80308316270654
:100B2A00F0008030003A70020318A52D83126B087A
:100B3A0084002D308000EB0A83162708003CA700AA
:100B4A0027088312EE008030093AF00080308316BD
:100B5A00270670020318BE2D0A30F40083126E08AD
:100B6A00F0006E213030F0076B08840070088000B6
:100B7A00EB0A83120A30F4006E08F0006E2178083E
:100B8A00F0003030F0076B08840070088000EB0A30
:100B9A00831625082407F0007008A40083126C0845
:100BAA007002F1007108EE008030003AF0008030E7
:100BBA00710670020318ED2D8030003AF000803083
:100BCA006E0670020318EC2DEE03EB03E12D042EE2
:100BDA0080306E06F0008030003A70020318042E4E
:100BEA0080306E06F0008030003A70020318042E3E
:100BFA00EE0A6B08840030308000EB0AF52D6B0892
:080C0A0084008001F0010800E4
:100C1200831203137008F8007108F000F101F20169
:100C2200F301FB01FC019630F300FA017008F100B8
:0C0C32007808F000F801F201BF21080072
:100C3E00FF208A110A128000840AC90A0319CA0AFF
:080C4E00F003031D1F2E080036
:100C560083160313860105149220B12001308316F2
:0E0C6600AA0024200C308316AA0024200800C7
:100C7400831203139F01C0309F043E09F0007008E3
:100C840083169F051F179F1783126708F000F00D46
:100C94007010F00D7010F00D701070089F041F1488
:100CA40006211F151F1D582E0000542E1F101E084C
:100CB400F100F00183161E08F0040030F10408006E
:100CC400F4262B260130E7000130E8002130E9004A
:100CD40013230230E7000130E8003430E900132325
:100CE4000230E7000E30E8003230E9001323E70158
:100CF4003A2609267008D3007108D4007208D5007A
:100D04007308D6000030F400C030F5007F30F600E0
:100D14008830F7005C220030F4000030F5004830E1
:100D2400F6008530F7000D217008CF007108D0005F
:100D34007208D1007308D2007008E7007108E80057
:100D44007208E9007308EA005730EB000430EC0045
:100D54005523023083120313E7000A30E8005730AA
:100D6400E90013238230FC00DD30FD00FD0BB82EBA
:100D7400FC0BB82E00000000792EFD0BBF2EFC0BDF
:080D8400BF2E00000000C52E87
:100DE80021308400283083120313F000CB30C9006F
:080DF8000630CA001F260800A6
:100D96002D34533465346E3473346F3472342034E6
:100DA60055346D34693464346134643465342D34B7
:020DB600003407
:040DB80025340034AA
:100DBC0055346D34693464346134643465343A3494
:040DCC00203400349B
:020DD0000F34DE
:080DD20049344E34463400346C
:040DDA00303400347D
:080DDE004E3461344E34003440
:02400E004A2F37
:00000001FF
