:020000001628C0
:0E0006008312031337088A00360882000800B0
:1000140003208A110A128000840AB60A0319B70A57
:08002400F003031D0A28080087
:10002C000A3083120313A000A1013F30A200A301E8
:10003C000630A400A5015B30A600A7014F30A80034
:10004C00A9016630AA00AB016D30AC00AD017D306A
:10005C00AE00AF010730B000B1017F30B200B30188
:10006C006F30B400B501B8018316860101308312DC
:10007C002002B9000030031C013E2102BA0080307E
:10008C003A06F00080307002031D4E280030390211
:10009C00031C73283908F0003A08F100F00DF10D3B
:1000AC0070107008223E84000008F0007008B80040
:1000BC00700886000630FB001330FC00AD30FD00EC
:1000CC00FD0B6628FC0B6628FB0B66280000000065
:0E00DC000130B902031CBA0345283C287428E1
:02400E006A2125
:00000001FF
