:02000000932942
:0400060000000800EE
:10000A00083083120313FC002330FD00FD0B0B287C
:06001A00FC0B0B2808009E
:10002000103083120313FD00FD0B1428000008009C
:1000300083120313BE1B1E2886131F2886173E1B20
:100040002328061324280617BE1A282886122928D2
:1000500086163E1A2D2806122E280616311832282A
:10006000061533280611861503208611BE193A2875
:1000700086133B2886173E193F280613402806178B
:10008000BE1844288612452886163E1849280612AE
:100090004A28061631184E2806154F2806118615CF
:1000A00003208611311C56280520572810200800EF
:1000B00083120313B901BB01BC011030BD00043031
:1000C0003C0203188928F03088008030F000700866
:1000D000083E84003D09F0007008800003200320E2
:1000E0000F300805F0007008BA0070080319832863
:1000F0003B08B9003A0803198128BA0CBA13B90AA7
:100100007A280430BC00BD0D3D100430BB07BC0A8A
:080110005F283908F000080027
:100118008312031331103908BE0018203114080067
:10012800803083120313F0007008083E8400FF300B
:04013800800008003B
:0E013C00033083120313FD00FD0BA228080000
:0E014A008312031333088A0032088200080073
:1001580083160313861106110612861206138613D8
:1001680083128611061186130613861206120520BD
:1001780005200520861606168615032086110520FB
:100188008615032086110520861503208611052073
:100198000612861503208611052086150320861170
:1001A80086128617861503208611052086130616E3
:1001B8008615032086110612861503208611052050
:1001C800861503208611061686150320861105203C
:1001D8000612861503208611861706178616061638
:0C01E80086150320861105203114080044
:1001F40058207008B5000F300805F00003190429D1
:0A0204009E20FD283508F0000800D8
:10020E001929803083120313B5002C29C030B50094
:10021E002C299430B5002C29D430B5002C298030EF
:10022E00B5002C29831203133508013A0319082946
:10023E003508023A03190D293508033A0319102916
:10024E003508043A0319132916293603F000350828
:10025E00F0077008B5007008BE0018203110B80104
:10026E00380837078400000803194529380837076E
:10027E0084000008B9008C20B80A37293114080010
:10028E00831603138601FF3088009420AC200130C2
:06029E00BE00182008005C
:1002A400A5208A110A128000840AB20A0319B30A2B
:0802B400F003031D52290800AC
:1002BC007029803083120313B5008329C030B50038
:1002CC0083299430B5008329D430B500832980303C
:1002DC00B5008329831203133508013A03195F29EA
:1002EC003508023A031964293508033A03196729BA
:1002FC003508043A03196A296D293603F0003508CC
:10030C00F0077008B50031147008BE0018203110C9
:0A031C003708BE0018203114080055
:1003260083120313A0014430A1006930A200673094
:10033600A3006930A4007430A5006530A6003A30E9
:10034600A700A8014430A9006930AA006730AB00B5
:100356006930AC007430AD006530AE003A30AF00A5
:10036600B00158207008B40047210130B5000130B3
:10037600B6002930B7000721FA207008B400F32927
:100386003730B400332A3430B400332A3130B40065
:10039600332A7F30B400332A3830B400332A35305C
:1003A600B400332A3230B400332A3030B400332A52
:1003B6003930B400332A3630B400332A3330B4002F
:1003C600332A3D30B400332A2F30B400332A2A3082
:1003D600B400332A2D30B400332A2B30B400332A2C
:1003E6003408013A0319C3293408023A0319C62905
:1003F6003408033A0319C9293408043A0319CC29E5
:100406003408053A0319CF293408063A0319D229C4
:100416003408073A0319D5293408083A0319D829A4
:100426003408093A0319DB2934080A3A0319DE2984
:1004360034080B3A0319E12934080C3A0319E42964
:1004460034080D3A0319E72934080E3A0319EA2944
:1004560034080F3A0319ED293408103A0319F02924
:100466003408003A0319532A34087F3A031D472AF1
:100476000130BE0018200130B5000130B600213031
:10048600B7000721A001532A103020020318532A6F
:100496000230B500200AB6003408B7005E21A00A73
:1004A6008230FC00DD30FD00FD0B572AFC0B572A7D
:0804B60000000000BF295E2ACE
:02400E004A2F37
:00000001FF
