:02000000642872
:10000600831603139818092800000328480883124A
:040016009900080045
:0E001A008316031343088A0042088200080080
:100028008316031398169030831298008316871747
:10003800071383128C1E23281A08F0001D280800B5
:10004800831203131A08F100981C2C28181218168A
:060058007108F000080031
:10005E0083160313860183128601193083169900C5
:06006E0018151420080023
:100074000D208A110A128000840AC20A0319C30AD5
:08008400F003031D3A280800F7
:10008C0083160313C701450884000008C600460800
:10009C00003A03195C284608C80003208316C70AD7
:0E00AC004708450784000008C6004D280800DC
:0E00BA000030831203138C1A0130F00008008E
:1000C80068212F2040308316C50046200D30C80017
:1000D80003204D308316C50046200D30C80003208C
:1000E800A0308316C50046200D30C80003202030FC
:1000F8008316C50046200D30C80003205D20700817
:10010800013A031DEE28242070088316C4007008E5
:10011800C800032083164408723A031DAE288312D0
:1001280006140630FB001330FC00AD30FD00FD0B5B
:100138009B28FC0B9B28FB0B9B280000000006104B
:100148000D30FC00FB30FD00FD0BA828FC0BA82897
:100158000000000083164408793A031DCE28831254
:1001680006150630FB001330FC00AD30FD00FD0B1A
:10017800BB28FC0BBB28FB0BBB28000000000611AA
:100188000D30FC00FB30FD00FD0BC828FC0BC82817
:100198000000000083164408673A031DEE28831206
:1001A80086150630FB001330FC00AD30FD00FD0B5A
:1001B800DB28FC0BDB28FB0BDB280000000086118A
:1001C8000D30FC00FB30FD00FD0BE828FC0BE82897
:0801D800000000008228EF285E
:1002D00020308400503083120313F000F530831671
:1002E000C2000030C3003A20A03084002230031343
:1002F000F00045308316C2000130C3003A200800E8
:1001EA004434693467346934743465342034673488
:1001FA002034703461347234613420346C3469349C
:10020A0067346134723420346F3420344C344534CA
:10021A0044342034563465347234643465340034DA
:10022A005F345F344C3469346734613420344C347D
:0A023A00653464345F345F3400342F
:100244004434693467346934743465342034723422
:100254002034703461347234613420346C34693441
:1002640067346134723420346F3420344C34453470
:10027400443420345634653472346D3465346C340B
:0602840068346F34003401
:10028A0044346934673469347434653420347934D5
:10029A002034703461347234613420346C346934FB
:1002AA0067346134723420346F3420344C3445342A
:1002BA004434203441346D346134723465346C34DE
:0402CA006F34003459
:02400E004A2F37
:00000001FF
